{
    "_format": "hh-sol-artifact-1",
    "contractName": "Escrow",
    "sourceName": "contracts/Escrow.sol",
    "abi": [
        {
            "inputs": [
                {
                    "internalType": "address",
                    "name": "_realEstateNFTAddress",
                    "type": "address"
                }
            ],
            "stateMutability": "nonpayable",
            "type": "constructor"
        },
        {
            "inputs": [
                {
                    "internalType": "string",
                    "name": "reason",
                    "type": "string"
                },
                {
                    "internalType": "uint256",
                    "name": "_nftID",
                    "type": "uint256"
                },
                {
                    "internalType": "uint256",
                    "name": "escrowAmount",
                    "type": "uint256"
                },
                {
                    "internalType": "uint256",
                    "name": "providedAmount",
                    "type": "uint256"
                }
            ],
            "name": "EarnestDepositError",
            "type": "error"
        },
        {
            "inputs": [
                {
                    "internalType": "uint256",
                    "name": "_nftID",
                    "type": "uint256"
                },
                {
                    "internalType": "string",
                    "name": "reason",
                    "type": "string"
                }
            ],
            "name": "InspectionPassedError",
            "type": "error"
        },
        {
            "inputs": [
                {
                    "internalType": "string",
                    "name": "reason",
                    "type": "string"
                },
                {
                    "internalType": "uint256",
                    "name": "_nftID",
                    "type": "uint256"
                },
                {
                    "internalType": "address",
                    "name": "desiredEntity",
                    "type": "address"
                },
                {
                    "internalType": "address",
                    "name": "providedEntity",
                    "type": "address"
                }
            ],
            "name": "NotDesiredEntityError",
            "type": "error"
        },
        {
            "inputs": [
                {
                    "internalType": "uint256",
                    "name": "_nftID",
                    "type": "uint256"
                },
                {
                    "internalType": "string",
                    "name": "reason",
                    "type": "string"
                }
            ],
            "name": "NotListedError",
            "type": "error"
        },
        {
            "inputs": [
                {
                    "internalType": "uint256",
                    "name": "_nftID",
                    "type": "uint256"
                },
                {
                    "internalType": "string",
                    "name": "reason",
                    "type": "string"
                }
            ],
            "name": "SaleError",
            "type": "error"
        },
        {
            "inputs": [
                {
                    "internalType": "uint256",
                    "name": "_nftID",
                    "type": "uint256"
                },
                {
                    "internalType": "string",
                    "name": "reason",
                    "type": "string"
                }
            ],
            "name": "WithoutEscrowError",
            "type": "error"
        },
        {
            "anonymous": false,
            "inputs": [
                {
                    "indexed": false,
                    "internalType": "uint256",
                    "name": "when",
                    "type": "uint256"
                },
                {
                    "indexed": true,
                    "internalType": "uint256",
                    "name": "nftID",
                    "type": "uint256"
                },
                {
                    "indexed": true,
                    "internalType": "address",
                    "name": "approver",
                    "type": "address"
                }
            ],
            "name": "ApprovedSaleByEvent",
            "type": "event"
        },
        {
            "anonymous": false,
            "inputs": [
                {
                    "indexed": false,
                    "internalType": "uint256",
                    "name": "when",
                    "type": "uint256"
                },
                {
                    "indexed": true,
                    "internalType": "uint256",
                    "name": "nftID",
                    "type": "uint256"
                },
                {
                    "indexed": true,
                    "internalType": "address",
                    "name": "buyer",
                    "type": "address"
                },
                {
                    "indexed": false,
                    "internalType": "uint256",
                    "name": "amount",
                    "type": "uint256"
                }
            ],
            "name": "DepositedByBuyerEvent",
            "type": "event"
        },
        {
            "anonymous": false,
            "inputs": [
                {
                    "indexed": false,
                    "internalType": "uint256",
                    "name": "when",
                    "type": "uint256"
                },
                {
                    "indexed": true,
                    "internalType": "uint256",
                    "name": "nftID",
                    "type": "uint256"
                },
                {
                    "indexed": true,
                    "internalType": "address",
                    "name": "inspector",
                    "type": "address"
                },
                {
                    "indexed": false,
                    "internalType": "bool",
                    "name": "passed",
                    "type": "bool"
                }
            ],
            "name": "InspectionEvent",
            "type": "event"
        },
        {
            "anonymous": false,
            "inputs": [
                {
                    "indexed": false,
                    "internalType": "uint256",
                    "name": "when",
                    "type": "uint256"
                },
                {
                    "indexed": true,
                    "internalType": "uint256",
                    "name": "nftID",
                    "type": "uint256"
                },
                {
                    "indexed": true,
                    "internalType": "address",
                    "name": "seller",
                    "type": "address"
                },
                {
                    "indexed": false,
                    "internalType": "uint256",
                    "name": "purchasePrice",
                    "type": "uint256"
                },
                {
                    "indexed": false,
                    "internalType": "uint256",
                    "name": "escrowAmount",
                    "type": "uint256"
                }
            ],
            "name": "ListEvent",
            "type": "event"
        },
        {
            "anonymous": false,
            "inputs": [
                {
                    "indexed": false,
                    "internalType": "uint256",
                    "name": "when",
                    "type": "uint256"
                },
                {
                    "indexed": true,
                    "internalType": "uint256",
                    "name": "nftID",
                    "type": "uint256"
                },
                {
                    "indexed": true,
                    "internalType": "address",
                    "name": "seller",
                    "type": "address"
                },
                {
                    "indexed": false,
                    "internalType": "address",
                    "name": "buyer",
                    "type": "address"
                }
            ],
            "name": "SaleEvent",
            "type": "event"
        },
        {
            "inputs": [
                {
                    "internalType": "address",
                    "name": "",
                    "type": "address"
                }
            ],
            "name": "approval",
            "outputs": [
                {
                    "internalType": "bool",
                    "name": "",
                    "type": "bool"
                }
            ],
            "stateMutability": "view",
            "type": "function"
        },
        {
            "inputs": [
                {
                    "internalType": "uint256",
                    "name": "_nftID",
                    "type": "uint256"
                }
            ],
            "name": "approveSale",
            "outputs": [],
            "stateMutability": "nonpayable",
            "type": "function"
        },
        {
            "inputs": [
                {
                    "internalType": "uint256",
                    "name": "",
                    "type": "uint256"
                }
            ],
            "name": "buyer",
            "outputs": [
                {
                    "internalType": "address",
                    "name": "",
                    "type": "address"
                }
            ],
            "stateMutability": "view",
            "type": "function"
        },
        {
            "inputs": [
                {
                    "internalType": "uint256",
                    "name": "_nftID",
                    "type": "uint256"
                }
            ],
            "name": "depositBuyer",
            "outputs": [],
            "stateMutability": "payable",
            "type": "function"
        },
        {
            "inputs": [
                {
                    "internalType": "uint256",
                    "name": "",
                    "type": "uint256"
                }
            ],
            "name": "depositByBuyer",
            "outputs": [
                {
                    "internalType": "uint256",
                    "name": "",
                    "type": "uint256"
                }
            ],
            "stateMutability": "view",
            "type": "function"
        },
        {
            "inputs": [
                {
                    "internalType": "uint256",
                    "name": "",
                    "type": "uint256"
                }
            ],
            "name": "depositByLender",
            "outputs": [
                {
                    "internalType": "uint256",
                    "name": "",
                    "type": "uint256"
                }
            ],
            "stateMutability": "view",
            "type": "function"
        },
        {
            "inputs": [
                {
                    "internalType": "uint256",
                    "name": "",
                    "type": "uint256"
                }
            ],
            "name": "depositedAmount",
            "outputs": [
                {
                    "internalType": "uint256",
                    "name": "",
                    "type": "uint256"
                }
            ],
            "stateMutability": "view",
            "type": "function"
        },
        {
            "inputs": [
                {
                    "internalType": "uint256",
                    "name": "",
                    "type": "uint256"
                }
            ],
            "name": "escrowAmount",
            "outputs": [
                {
                    "internalType": "uint256",
                    "name": "",
                    "type": "uint256"
                }
            ],
            "stateMutability": "view",
            "type": "function"
        },
        {
            "inputs": [],
            "name": "getBalance",
            "outputs": [
                {
                    "internalType": "uint256",
                    "name": "",
                    "type": "uint256"
                }
            ],
            "stateMutability": "view",
            "type": "function"
        },
        {
            "inputs": [
                {
                    "internalType": "uint256",
                    "name": "",
                    "type": "uint256"
                }
            ],
            "name": "inspectionPassed",
            "outputs": [
                {
                    "internalType": "bool",
                    "name": "",
                    "type": "bool"
                }
            ],
            "stateMutability": "view",
            "type": "function"
        },
        {
            "inputs": [
                {
                    "internalType": "uint256",
                    "name": "",
                    "type": "uint256"
                }
            ],
            "name": "inspector",
            "outputs": [
                {
                    "internalType": "address",
                    "name": "",
                    "type": "address"
                }
            ],
            "stateMutability": "view",
            "type": "function"
        },
        {
            "inputs": [
                {
                    "internalType": "uint256",
                    "name": "",
                    "type": "uint256"
                }
            ],
            "name": "isListed",
            "outputs": [
                {
                    "internalType": "bool",
                    "name": "",
                    "type": "bool"
                }
            ],
            "stateMutability": "view",
            "type": "function"
        },
        {
            "inputs": [
                {
                    "internalType": "uint256",
                    "name": "_nftID",
                    "type": "uint256"
                }
            ],
            "name": "lend",
            "outputs": [],
            "stateMutability": "payable",
            "type": "function"
        },
        {
            "inputs": [
                {
                    "internalType": "uint256",
                    "name": "",
                    "type": "uint256"
                }
            ],
            "name": "lender",
            "outputs": [
                {
                    "internalType": "address",
                    "name": "",
                    "type": "address"
                }
            ],
            "stateMutability": "view",
            "type": "function"
        },
        {
            "inputs": [
                {
                    "internalType": "uint256",
                    "name": "_nftID",
                    "type": "uint256"
                },
                {
                    "internalType": "uint256",
                    "name": "_purchasePrice",
                    "type": "uint256"
                },
                {
                    "internalType": "uint256",
                    "name": "_escrowAmount",
                    "type": "uint256"
                }
            ],
            "name": "list",
            "outputs": [],
            "stateMutability": "payable",
            "type": "function"
        },
        {
            "inputs": [
                {
                    "internalType": "uint256",
                    "name": "_nftID",
                    "type": "uint256"
                }
            ],
            "name": "meToBuyer",
            "outputs": [],
            "stateMutability": "nonpayable",
            "type": "function"
        },
        {
            "inputs": [
                {
                    "internalType": "uint256",
                    "name": "_nftID",
                    "type": "uint256"
                }
            ],
            "name": "meToInspector",
            "outputs": [],
            "stateMutability": "nonpayable",
            "type": "function"
        },
        {
            "inputs": [
                {
                    "internalType": "uint256",
                    "name": "_nftID",
                    "type": "uint256"
                }
            ],
            "name": "meToLender",
            "outputs": [],
            "stateMutability": "nonpayable",
            "type": "function"
        },
        {
            "inputs": [
                {
                    "internalType": "uint256",
                    "name": "",
                    "type": "uint256"
                }
            ],
            "name": "purchasePrice",
            "outputs": [
                {
                    "internalType": "uint256",
                    "name": "",
                    "type": "uint256"
                }
            ],
            "stateMutability": "view",
            "type": "function"
        },
        {
            "inputs": [],
            "name": "realEstateNFTAddress",
            "outputs": [
                {
                    "internalType": "address",
                    "name": "",
                    "type": "address"
                }
            ],
            "stateMutability": "view",
            "type": "function"
        },
        {
            "inputs": [
                {
                    "internalType": "uint256",
                    "name": "",
                    "type": "uint256"
                }
            ],
            "name": "seller",
            "outputs": [
                {
                    "internalType": "address",
                    "name": "",
                    "type": "address"
                }
            ],
            "stateMutability": "view",
            "type": "function"
        },
        {
            "inputs": [
                {
                    "internalType": "uint256",
                    "name": "_nftID",
                    "type": "uint256"
                }
            ],
            "name": "transactionSale",
            "outputs": [],
            "stateMutability": "nonpayable",
            "type": "function"
        },
        {
            "inputs": [
                {
                    "internalType": "uint256",
                    "name": "_nftID",
                    "type": "uint256"
                },
                {
                    "internalType": "bool",
                    "name": "_inspectionPassed",
                    "type": "bool"
                }
            ],
            "name": "updateInspectionStatus",
            "outputs": [],
            "stateMutability": "nonpayable",
            "type": "function"
        },
        {
            "inputs": [
                {
                    "internalType": "uint256",
                    "name": "",
                    "type": "uint256"
                }
            ],
            "name": "withEscrow",
            "outputs": [
                {
                    "internalType": "bool",
                    "name": "",
                    "type": "bool"
                }
            ],
            "stateMutability": "view",
            "type": "function"
        },
        {
            "stateMutability": "payable",
            "type": "receive"
        }
    ],
    "bytecode": "0x608060405234801561001057600080fd5b506040516117ab3803806117ab83398101604081905261002f91610054565b600080546001600160a01b0319166001600160a01b0392909216919091179055610084565b60006020828403121561006657600080fd5b81516001600160a01b038116811461007d57600080fd5b9392505050565b611718806100936000396000f3fe60806040526004361061018f5760003560e01c806377fbc4ae116100d6578063a6aa57ce1161007f578063bd6dceed11610059578063bd6dceed146104fc578063edf30fbd1461051c578063fcce48831461054957600080fd5b8063a6aa57ce14610493578063aa4bbade146104a6578063aacdfe6f146104c657600080fd5b80639430b496116100b05780639430b4961461040d5780639ab889141461043d5780639d0e5fd61461047357600080fd5b806377fbc4ae146103835780637c16f204146103b05780638e2ddb6c146103dd57600080fd5b80634a5a7aef1161013857806357e4561d1161011257806357e4561d146102e05780635d19e56c146103165780635eed5fff1461034357600080fd5b80634a5a7aef1461025f5780634dd4acaf1461027f57806352d8cae8146102cd57600080fd5b806319aeb4901161016957806319aeb490146101ff57806339506cb914610212578063472b44a21461023257600080fd5b8063067d788d1461019b57806312065fe0146101bd57806314a72feb146101df57600080fd5b3661019657005b600080fd5b3480156101a757600080fd5b506101bb6101b6366004611552565b610579565b005b3480156101c957600080fd5b50475b6040519081526020015b60405180910390f35b3480156101eb57600080fd5b506101bb6101fa366004611552565b6109df565b6101bb61020d36600461156b565b610a97565b34801561021e57600080fd5b506101bb61022d366004611552565b610ba9565b34801561023e57600080fd5b506101cc61024d366004611552565b60046020526000908152604090205481565b34801561026b57600080fd5b506101bb61027a366004611552565b610cc8565b34801561028b57600080fd5b506102b561029a366004611552565b6008602052600090815260409020546001600160a01b031681565b6040516001600160a01b0390911681526020016101d6565b6101bb6102db366004611552565b610de7565b3480156102ec57600080fd5b506102b56102fb366004611552565b6009602052600090815260409020546001600160a01b031681565b34801561032257600080fd5b506101cc610331366004611552565b60036020526000908152604090205481565b34801561034f57600080fd5b5061037361035e366004611552565b600c6020526000908152604090205460ff1681565b60405190151581526020016101d6565b34801561038f57600080fd5b506101cc61039e366004611552565b60026020526000908152604090205481565b3480156103bc57600080fd5b506101cc6103cb366004611552565b60066020526000908152604090205481565b3480156103e957600080fd5b506103736103f8366004611552565b600b6020526000908152604090205460ff1681565b34801561041957600080fd5b50610373610428366004611597565b600d6020526000908152604090205460ff1681565b34801561044957600080fd5b506102b5610458366004611552565b600a602052600090815260409020546001600160a01b031681565b34801561047f57600080fd5b506101bb61048e3660046115c7565b611036565b6101bb6104a1366004611552565b61117a565b3480156104b257600080fd5b506000546102b5906001600160a01b031681565b3480156104d257600080fd5b506102b56104e1366004611552565b6007602052600090815260409020546001600160a01b031681565b34801561050857600080fd5b506101bb610517366004611552565b6113c8565b34801561052857600080fd5b506101cc610537366004611552565b60056020526000908152604090205481565b34801561055557600080fd5b50610373610564366004611552565b60016020526000908152604090205460ff1681565b600081815260016020526040902054819060ff166105e057806040516303dd7ea160e61b81526004016105d791815260406020820181905260119082015270139195081a5cc81b9bdd081b1a5cdd1959607a1b606082015260800190565b60405180910390fd5b6000828152600c602052604090205460ff166106485781604051631a54558560e21b81526004016105d79181526040602082018190526019908201527f496e7370656374696f6e206e6f74207061737365642079657400000000000000606082015260800190565b6000828152600860209081526040808320546001600160a01b03168352600d90915290205460ff166106ec5781604051631a54558560e21b81526004016105d79181526040602082018190526023908201527f427579657220686173206e6f7420617070726f766564207468652073616c652060608201527f7965740000000000000000000000000000000000000000000000000000000000608082015260a00190565b6000828152600760209081526040808320546001600160a01b03168352600d90915290205460ff166107905781604051631a54558560e21b81526004016105d79181526040602082018190526024908201527f53656c6c657220686173206e6f7420617070726f766564207468652073616c6560608201527f2079657400000000000000000000000000000000000000000000000000000000608082015260a00190565b60008281526002602052604090205447101561081e5781604051631a54558560e21b81526004016105d79181526040602082018190526026908201527f496e737566696369656e742066756e647320746f20636f6d706c65746520746860608201527f652073616c650000000000000000000000000000000000000000000000000000608082015260a00190565b6000828152600760205260408082205490516001600160a01b039091169047908381818185875af1925050503d8060008114610876576040519150601f19603f3d011682016040523d82523d6000602084013e61087b565b606091505b50509050806108fc5782604051631a54558560e21b81526004016105d79181526040602082018190526026908201527f4661696c656420746f207472616e736665722066756e647320746f207468652060608201527f73656c6c65720000000000000000000000000000000000000000000000000000608082015260a00190565b6000805484825260086020526040918290205491516323b872dd60e01b81523060048201526001600160a01b039283166024820152604481018690529116906323b872dd90606401600060405180830381600087803b15801561095e57600080fd5b505af1158015610972573d6000803e3d6000fd5b50505060008481526007602090815260408083205460088352928190205481514281526001600160a01b0391821693810193909352909216925085917f406eeb6cd72c677a4dda2ede7bbe9a0e29bf8cbed7e6ce166326aacab25d692391015b60405180910390a3505050565b600081815260016020526040902054819060ff16610a3d57806040516303dd7ea160e61b81526004016105d791815260406020820181905260119082015270139195081a5cc81b9bdd081b1a5cdd1959607a1b606082015260800190565b336000818152600d602052604090819020805460ff191660011790555183907fef1ed66713625f6f1cc332d4850bbe8be03b80cdf0788f54501cabd2da12c1f790610a8b9042815260200190565b60405180910390a35050565b6000546040516323b872dd60e01b8152336004820152306024820152604481018590526001600160a01b03909116906323b872dd90606401600060405180830381600087803b158015610ae957600080fd5b505af1158015610afd573d6000803e3d6000fd5b5050506000848152600160208181526040808420805460ff199081169094179055600282528084208790556003825280842086905560078252808420805473ffffffffffffffffffffffffffffffffffffffff191633908117909155600c8352938190208054909316909255815142815290810186905290810184905290915084907fe610992aa7fbfcf35f9618dc25f6ffb1d92910896dbb3451b65de4fbba62bcb8906060016109d2565b600081815260016020526040902054819060ff16610c0757806040516303dd7ea160e61b81526004016105d791815260406020820181905260119082015270139195081a5cc81b9bdd081b1a5cdd1959607a1b606082015260800190565b6000828152600960205260409020546001600160a01b031615610c9a576000828152600960205260409081902054905163c41a685b60e01b815260806004820152601c60848201527f4e465420616c72656164792068617320616e20696e73706563746f720000000060a4820152602481018490526001600160a01b03909116604482015233606482015260c4016105d7565b506000908152600960205260409020805473ffffffffffffffffffffffffffffffffffffffff191633179055565b600081815260016020526040902054819060ff16610d2657806040516303dd7ea160e61b81526004016105d791815260406020820181905260119082015270139195081a5cc81b9bdd081b1a5cdd1959607a1b606082015260800190565b6000828152600860205260409020546001600160a01b031615610db9576000828152600860205260409081902054905163c41a685b60e01b815260806004820152601760848201527f4e465420616c726561647920686173206120627579657200000000000000000060a4820152602481018490526001600160a01b03909116604482015233606482015260c4016105d7565b506000908152600860205260409020805473ffffffffffffffffffffffffffffffffffffffff191633179055565b600081815260016020526040902054819060ff16610e4557806040516303dd7ea160e61b81526004016105d791815260406020820181905260119082015270139195081a5cc81b9bdd081b1a5cdd1959607a1b606082015260800190565b604080518082018252601e81527f4f6e6c792062757965722063616e206465706f736974206561726e65737400006020808301919091526000858152600890915291909120548391906001600160a01b03163314610ed6576000828152600860205260409081902054905163c41a685b60e01b81526105d791839185916001600160a01b03169033906004016115fc565b6000848152600360209081526040808320546004909252909120541015610fae57600084815260036020526040902054341015610f9457600084815260036020526040908190205490517fd2f8c85700000000000000000000000000000000000000000000000000000000815260806004820152601a60848201527f496e737566696369656e742066756e64732070726f766964656400000000000060a482015260248101869052604481019190915234606482015260c4016105d7565b6000848152600b60205260409020805460ff191660011790555b60008481526004602052604081208054349290610fcc908490611677565b909155505060008481526005602052604081208054349290610fef908490611677565b909155505060408051428152346020820152339186917f54017d2bc3d339d29b13c1c5480e753300833c0c5747a44ab01dcb8a70edbc67910160405180910390a350505050565b600082815260016020526040902054829060ff1661109457806040516303dd7ea160e61b81526004016105d791815260406020820181905260119082015270139195081a5cc81b9bdd081b1a5cdd1959607a1b606082015260800190565b826040518060600160405280602b81526020016116b8602b91396000828152600960205260409020546001600160a01b03163314611105576000828152600960205260409081902054905163c41a685b60e01b81526105d791839185916001600160a01b03169033906004016115fc565b6000858152600c60209081526040808320805460ff19168815159081179091556009835292819020548151428152928301939093526001600160a01b039092169187917f7ff8a8953a1ad5f743837fdbc59523da6d932353e8a7c0a08e3e57e0b078eb0e910160405180910390a35050505050565b600081815260016020526040902054819060ff166111d857806040516303dd7ea160e61b81526004016105d791815260406020820181905260119082015270139195081a5cc81b9bdd081b1a5cdd1959607a1b606082015260800190565b6000828152600b6020526040902054829060ff1661127f57806040517fcdef41ba0000000000000000000000000000000000000000000000000000000081526004016105d7918152604060208201819052808201527f4e4654206973206e6f74207769746820657363726f772076616c75652028627560608201527f796572206d757374206465706f73697420746f20646f206120657363726f7729608082015260a00190565b6000838152600c6020526040902054839060ff166112e9578060405163399e3c7960e11b81526004016105d79181526040602082018190526019908201527f496e7370656374696f6e206e6f74207061737365642079657400000000000000606082015260800190565b604080518082018252601481527f4f6e6c79206c656e6465722063616e206c656e640000000000000000000000006020808301919091526000878152600a90915291909120548591906001600160a01b0316331461137a576000828152600a60205260409081902054905163c41a685b60e01b81526105d791839185916001600160a01b03169033906004016115fc565b60008681526004602052604081208054349290611398908490611677565b9091555050600086815260066020526040812080543492906113bb908490611677565b9091555050505050505050565b600081815260016020526040902054819060ff1661142657806040516303dd7ea160e61b81526004016105d791815260406020820181905260119082015270139195081a5cc81b9bdd081b1a5cdd1959607a1b606082015260800190565b6000828152600c6020526040902054829060ff16611490578060405163399e3c7960e11b81526004016105d79181526040602082018190526019908201527f496e7370656374696f6e206e6f74207061737365642079657400000000000000606082015260800190565b6000838152600a60205260409020546001600160a01b031615611523576000838152600a60205260409081902054905163c41a685b60e01b815260806004820152601860848201527f4e465420616c7265616479206861732061206c656e646572000000000000000060a4820152602481018590526001600160a01b03909116604482015233606482015260c4016105d7565b50506000908152600a60205260409020805473ffffffffffffffffffffffffffffffffffffffff191633179055565b60006020828403121561156457600080fd5b5035919050565b60008060006060848603121561158057600080fd5b505081359360208301359350604090920135919050565b6000602082840312156115a957600080fd5b81356001600160a01b03811681146115c057600080fd5b9392505050565b600080604083850312156115da57600080fd5b82359150602083013580151581146115f157600080fd5b809150509250929050565b608081526000855180608084015260005b8181101561162a57602081890181015160a086840101520161160d565b50600060a0828501015260a0601f19601f8301168401019150508460208301526001600160a01b038416604083015261166e60608301846001600160a01b03169052565b95945050505050565b808201808211156116b1577f4e487b7100000000000000000000000000000000000000000000000000000000600052601160045260246000fd5b9291505056fe4f6e6c7920696e73706563746f722063616e2075706461746520696e7370656374696f6e20737461747573a2646970667358221220d9d7da77e3316c479c881d3f2c4ae1c7a86f25e2d5eaf2b27388ca2101b39bf064736f6c63430008140033",
    "linkReferences": {},
    "deployedLinkReferences": {}
}